:100000000C947F020C94A7020C94A7020C94341E4B
:100010000C94341E0C94341E0C94A7020C94A7026A
:100020000C94A7020C94A7020C94A7020C94A702AC
:100030000C94A7020C94A7020C94A7020C94A7029C
:100040000C94EA1D0C94A7020C94B81D0C94921DFC
:100050000C94A7020C94A7020C94A7020C94A7027C
:100060000C94A7020C94A70200407A10F35A00A047
:10007000724E18090010A5D4E80000E87648170071
:1000800000E40B54020000CA9A3B000000E1F505B1
:10009000000080969800000040420F000000A086FB
:1000A00001000000102700000000E803000000002D
:1000B0006400000000000A000000000001000000D1
:1000C00000002C76D888DC674F0823DFC1DFAE59EB
:1000D000E1B1B796E5E3E453C63AE651997696E87E
:1000E000E6C28426EB898C9B62ED407C6FFCEFBC02
:1000F0009C9F40F2BAA56FA5F490055A2AF75C932D
:100100006B6CF9676DC11BFCE0E40D47FEF520E662
:10011000B500D0ED902E0300943577050080841E45
:10012000080000204E0A000000C80C333333330FA0
:10013000986E12831141EF8D2114893BE65516CF3D
:10014000FEE6DB18D1844B381BF77C1D901DA4BB49
:10015000E424203284725E228100C9F124ECA1E5FE
:100160003D275D2000427566666572206F76657278
:10017000666C6F770041542B434950434C4F5345B5
:100180003D00626C6E6B696E660076657200302EA3
:10019000362E3100682D6265617400313000627561
:1001A00066662D696E0032353600646576004172F0
:1001B0006475696E6F20556E6F00637075004154F1
:1001C0006D6567613332385000636F6E0045535080
:1001D00038323636006275696C64004D61792020D2
:1001E0003720323032322031353A33393A3539001E
:1001F000000000000000240027002A0041542B4387
:10020000494653520041542B43574D4F44453D00FE
:1002100041542B43574D4F44453F0041542B4349D4
:10022000504D55583D0041542B474D5200415445C7
:10023000004154004661696C656420746F20636FEF
:100240006E6E656374205769466900436F6E6E6514
:100250006374656420746F2057694669004661695C
:100260006C656420746F2073657420535441206D55
:100270006F6465004661696C656420746F20656E0B
:1002800061626C65204D5558004661696C6564205B
:10029000746F2064697361626C65204563686F00E8
:1002A000455350206973206E6F7420726573706FB0
:1002B0006E64696E6700436F6E6E656374696E6726
:1002C00020746F20000D0A202020205F5F5F202017
:1002D0005F5F202020202020202020205F5F0D0A4B
:1002E0002020202F205F20292F202F5F205F5F5F9D
:1002F0005F5F20202F202F5F5F0D0A20202F205FBF
:1003000020202F202F202F2F202F205F205C2F2018
:1003100020275F2F0D0A202F5F5F5F5F2F5F2F5C0D
:100320005F2C202F5F2F2F5F2F5F2F5C5F5C0D0AEC
:1003300020202020202020202F5F5F5F2F2076307C
:100340002E362E31206F6E2041726475696E6F20DB
:10035000556E6F0D0A002C0041542B4349505345F4
:100360004E443D006D73292E00526561647920284A
:1003700070696E673A20000000000800020100006A
:100380000304070000000000000000AA02AA02AA5D
:1003900002AA02AA02AA02AA02AA02AA02AA02AAFD
:1003A00002AA02AA02AA02AA02AA02AA02AA02AAED
:1003B00002AA02AA02AA02AA02AA02AA02AA02AADD
:1003C00002AA02AA02AA02AA02AA02B608A70891D1
:1003D00008E90AA9028208A902A902A902A902A998
:1003E00002A902A902A902A902A902A902A902A9B5
:1003F00002A902A902A902A902A902A902A902A9A5
:1004000002A902A902A902A902A902496E76616C99
:10041000696420485720636D643A20005365727602
:1004200065723A20005265646972656374696E672B
:1004300020746F20005265616479005061636B65C0
:100440007420746F6F206269673A2000436F6E6E8C
:10045000656374206661696C65642E20636F6465F2
:100460003A2000496E76616C696420617574682079
:10047000746F6B656E004C6F67696E2074696D6593
:100480006F75740048656172746265617420746987
:100490006D656F7574002200222C220041542B439D
:1004A000574A41503D2200222C00222C22002C22AF
:1004B0000041542B43495053544152543D000000D5
:1004C000000023002600290000000000250028006D
:1004D0002B000404040404040404020202020202C5
:1004E00003030303030301020408102040800102F8
:1004F000040810200102040810201020C82611242E
:100500001FBECFEFD8E0DEBFCDBF12E0A0E0B1E06C
:10051000EEEAFCE502C005900D92A436B107D9F7CA
:1005200026E0A4E6B2E001C01D92AB30B207E1F7CD
:1005300012E0CEE7D2E004C02197FE010E943A2DDE
:10054000CD37D107C9F70E9439210C944A2E0C945B
:10055000000008950895CF92DF92EF92FF92CF931B
:10056000DF93B0919303A0E08111AB2F80919403AE
:1005700090E0880F991FAC0142545B4FC0909903E3
:10058000D0909A03E0909B03F0909C0330E020E031
:10059000FA01C591D491E881B90190E080E0EB23A4
:1005A000EA130AC02F5F3F4F6C157D058E059F052E
:1005B00078F36FEF7FEFCB01DF91CF91FF90EF905A
:1005C000DF90CF9008950895DB0114964D915C91D2
:1005D00015976D917C91DC01ED91FC910280F38186
:1005E000E02D0994EF92FF920F931F93CF93DF9327
:1005F0008C017B01D0E0C0E0F701EC0FFD1F64919E
:10060000662361F0D801ED91FC910190F081E02D1D
:10061000C8010995892B11F02196EECFCE01DF910B
:10062000CF911F910F91FF90EF900895AF92BF92DD
:10063000CF92DF92EF92FF920F931F93CF93DF93AE
:100640006C017B018B01040F151FEB015E01AE18DD
:10065000BF08C017D10759F06991D601ED91FC91FF
:100660000190F081E02DC6010995892B79F7C5012C
:10067000DF91CF911F910F91FF90EF90DF90CF907E
:10068000BF90AF900895FC01538D448D252F30E02D
:10069000842F90E0821B930B541710F0CF9608958F
:1006A00001970895FC01918D828D981761F0A28DBC
:1006B000AE0FBF2FB11D5D968C91928D9F5F9F7382
:1006C000928F90E008958FEF9FEF0895FC01918D38
:1006D000828D981731F0828DE80FF11D858D90E0A5
:1006E00008958FEF9FEF0895FC01918D228D892F42
:1006F00090E0805C9F4F821B91098F73992708952A
:100700008AEC92E00E94740321E0892B09F420E036
:10071000822F089580E090E0892B29F00E948003C9
:1007200081110C9400000895FC01A48DA80FB92F2D
:10073000B11DA35ABF4F2C91848D90E001968F7309
:100740009927848FA689B7892C93A089B1898C9128
:10075000837080648C93938D848D981306C0028877
:10076000F389E02D80818F7D80830895EF92FF9241
:100770000F931F93CF93DF93EC0181E0888F9B8DC4
:100780008C8D98131AC0E889F989808185FF15C07E
:100790009FB7F894EE89FF896083E889F9898081A1
:1007A0008370806480839FBF81E090E0DF91CF9170
:1007B0001F910F91FF90EF900895F62E0B8D10E092
:1007C0000F5F1F4F0F731127E02E8C8D8E110CC001
:1007D0000FB607FCFACFE889F989808185FFF5CF4C
:1007E000CE010E949403F1CFEB8DEC0FFD2FF11D94
:1007F000E35AFF4FF0829FB7F8940B8FEA89FB8989
:1008000080818062CFCFCF93DF93EC01888D8823E6
:10081000B9F0AA89BB89E889F9898C9185FD03C063
:10082000808186FD0DC00FB607FCF7CF8C9185FF48
:10083000F2CF808185FFEDCFCE010E949403E9CFF6
:10084000DF91CF910895833081F028F4813099F0C1
:100850008230A9F008958730A9F08830C9F084303B
:10086000B1F4809180008F7D03C0809180008F77EC
:1008700080938000089584B58F7784BD089584B5F2
:100880008F7DFBCF8091B0008F778093B00008956B
:100890008091B0008F7DF9CF1F93CF93DF93282FE6
:1008A00030E0F901E958FC4F8491F901EA51FB4F1E
:1008B000D491F901EE52FB4FC491CC23A9F0162F2D
:1008C00081110E942304EC2FF0E0EE0FFF1FE8538C
:1008D000FB4FA591B4918FB7F894EC91111108C01A
:1008E000D095DE23DC938FBFDF91CF911F910895C8
:1008F000DE2BF8CFCF93DF9390E0FC01EA51FB4F62
:1009000024918E529B4FFC0184918823C9F090E082
:10091000880F991FFC01EE50FE4FA591B491FC0188
:10092000E853FB4FC591D49161110DC09FB7F89466
:100930008C91209582238C938881282328839FBFC4
:10094000DF91CF910895623051F49FB7F8943C91B4
:10095000822F809583238C93E8812E2BEFCF8FB746
:10096000F894EC912E2B2C938FBFEACF3FB7F894DD
:100970008091BB029091BC02A091BD02B091BE02D9
:1009800026B5A89B05C02F3F19F00196A11DB11DEA
:100990003FBFBA2FA92F982F8827BC01CD01620F26
:1009A000711D811D911D42E0660F771F881F991FE1
:1009B0004A95D1F708958F929F92AF92BF92CF92AE
:1009C000DF92EF92FF926B017C010E94B6044B0113
:1009D0005C01C114D104E104F104B9F00E94B60431
:1009E000681979098A099B09683E73408105910558
:1009F00080F321E0C21AD108E108F10888EE880EE0
:100A000083E0981EA11CB11CE4CFFF90EF90DF9013
:100A1000CF90BF90AF909F908F9008952FB7F8948C
:100A20006091B7027091B8028091B9029091BA02B8
:100A30002FBF0895CF92DF92EF92FF920F931F93F3
:100A4000CF93DF93CDB7DEB7C054D1400FB6F89443
:100A5000DEBF0FBECDBF0E940E0500919503109121
:100A6000960320919703309198036B017C01C01A83
:100A7000D10AE20AF30A97018601003D17402105D9
:100A8000310590F480919D03C05CDE4F0FB6F89461
:100A9000DEBF0FBECDBFDF91CF911F910F91FF90B1
:100AA000EF90DF90CF900895609395037093960335
:100AB00080939703909398031092900310928F0362
:100AC00010928E0310928D0310928C0362E080913D
:100AD00091030E947A0461E070E080E090E00E945F
:100AE000DB0461E0809191030E947A0460E08091D0
:100AF00091030E944C04809192038551823020F52D
:100B00008BE291E10197F1F762E0809191030E94FD
:100B10007A0480919E0390E08230910538F0880F2E
:100B2000991F880F991F05970197F1F7F89480E0B6
:100B30000E94AB026F3F7F4F8F4F9F4F61F4109227
:100B40009D03789480E0A0CF64E170E080E090E0C5
:100B50000E94DB04D9CF81E00E94AB026F3F7F4F40
:100B60008F4F9F4F61F38E010F5F1F4F6E012FEB71
:100B7000C21A2EEFD20A780180E00E94AB02F70180
:100B8000608371838283938381E00E94AB02F701CB
:100B90006483758386839783F8E0EF0EF11CEC1471
:100BA000FD0451F7789430E020E0F801C080D18056
:100BB000E280F3804481558166817781FFEFCF1613
:100BC000DF06EF06FF0631F04F3F8FEF580768074B
:100BD000780719F410929D03B5CFF90183E0F595DC
:100BE000E7958A95E1F7E457FC4F8081880FC4169A
:100BF000D506E606F70610F180832F5F3F4F085FAA
:100C00001F4F2832310589F64091900320918C03C3
:100C100080918D03280F3327331F80918E03280F77
:100C2000311D80918F03820F932F911D99274817B3
:100C3000190681F681E080939D0326CF8160DCCF89
:100C40002091C1023091C2022817390771F49091A6
:100C5000BF028091C002981741F0E091BF02F0E01E
:100C6000EA58FD4F808190E008958FEF9FEF08953F
:100C7000EF92FF920F931F93CF93DF93DC015C966B
:100C8000ED90FC905D97E114F10479F481E090E03F
:100C900013969C938E93129790E080E0DF91CF9112
:100CA0001F910F91FF90EF9008955196ED91FC9157
:100CB000529750968C915097982F90950FB75E96BB
:100CC0002C915E97122F127021FD6095F89420816F
:100CD000112319F1282B2083E7012197F1F728E050
:100CE000462F50E0308160FF1AC0382B3083E70177
:100CF0002197F1F7BA0175956795215089F711236E
:100D000081F08081892380830FBF5C968D919C91B7
:100D10000197F1F781E090E0C1CF2923DCCF39239F
:100D2000E5CF9081892BEFCF2091C1023091C20293
:100D30002817390771F48091C0022091BF0290E01A
:100D4000805C9F4F821B910960E470E00E94F02C50
:100D5000089590E080E008952091C1023091C20290
:100D600028173907B9F49091BF028091C0029817F3
:100D700089F0E091BF02F0E0EA58FD4F80812091B8
:100D8000BF0230E02F5F3F4F2F7333272093BF0206
:100D900090E008958FEF9FEF089590E080E0089530
:100DA000DC01ED91FC911197309761F012968D91D5
:100DB0009C91E817F90730F481E09081992319F0AC
:100DC00080E0089581E00895FB0101900020E9F79B
:100DD0003197AF01461B570BDC01ED91FC9102806E
:100DE000F381E02D09948F929F92AF92BF92EF9280
:100DF000FF920F931F93CF93DF93CDB7DEB7A197E9
:100E00000FB6F894DEBF0FBECDBF7C01FA01CB0157
:100E100019A2223008F42AE08E010F5D1F4F822EA6
:100E2000912CB12CA12CBF01A50194010E94042D8D
:100E3000F901CA016A300CF5605DD8016E938D012D
:100E4000232B242B252B79F790E080E0109721F0BD
:100E5000BD01C7010E94E406A1960FB6F894DEBF5B
:100E60000FBECDBFDF91CF911F910F91FF90EF90FB
:100E7000BF90AF909F908F900895695CDECF6BE537
:100E80008AEC92E00E94B6030E940E05AB01BC0101
:100E90002AE08AEC92E00E94F30662E671E08AECB6
:100EA00092E00C94F2020F931F93CF93DF93EC0127
:100EB0002AE00E94F3068C0167E472E0CE010E94F2
:100EC000E406800F911FDF91CF911F910F9108953C
:100ED000CF93DF93BC018AEC92E00E94E406EC0120
:100EE00067E472E08AEC92E00E94E4068C0F9D1F9A
:100EF000DF91CF9108950F931F93CF93DF93EC0170
:100F0000462F50E070E060E02AE00E94F3068C017A
:100F100067E472E0CE010E94E406800F911FDF912A
:100F2000CF911F910F910895CF93DF93BC018AEC6D
:100F300092E00E94E402EC0167E472E08AEC92E045
:100F40000E94E4068C0F9D1FDF91CF910895CF93EF
:100F5000DF93AC0170E060E02AE08AEC92E00E944E
:100F6000F306EC0167E472E08AEC92E00E94E4068A
:100F70008C0F9D1FDF91CF9108950F931F93CF93F7
:100F8000DF93EC010E94F2028C0167E472E0CE0173
:100F90000E94E406800F911FDF91CF911F910F9166
:100FA00008958F929F92AF92BF92EF92FF920F930C
:100FB0001F93CF93DF934A015B01E901813009F070
:100FC00068C079018BEFE81A8EEFF80AD7018D918E
:100FD0009C9189010D5F1E4FF80120813181821B98
:100FE000930B181619060CF093950197092E000C17
:100FF000AA0BBB0B88159905AA05BB0590F40E94A6
:101000003F0765E671E08AEC92E0DF91CF911F9196
:101010000F91FF90EF90BF90AF909F908F900C94A6
:10102000BD0781149104A104B10499F1E881F9810B
:1010300080819181DC01ED91FC910084F185E02DAE
:101040000995892B71F3E881F98180819181DC0117
:10105000ED91FC910284F385E02D0995F801408122
:1010600051819A012F5F3F4F3327D7016D917C91BA
:1010700026173707D1F34C0F5D1FFA018383D80180
:1010800011963C932E93B1E08B1A9108A108B108F8
:10109000C8CFDF91CF911F910F91FF90EF90BF903C
:1010A000AF909F908F900895DC01ED91FC91119786
:1010B000309761F012962D913C911397E217F30748
:1010C00028F401900020E9F7ED93FC930895FC01CA
:1010D00080819181009711F00C94452860E070E0C8
:1010E000CB010895FC0180819181009739F0228124
:1010F00033818217930710F40C94452860E070E068
:10110000CB010895FB01808191810E94272861E035
:10111000009719F0019721F460E08BE00C944C04E7
:101120000895FB01808191810E942728892B71F409
:1011300060E088E00E944C0464EF71E080E090E0A1
:101140000E94DB0461E088E00C944C040895FB01EC
:10115000808191810E94272861E0009719F0019712
:1011600021F460E089E00C944C040895FB01808137
:1011700091810E94272861E0009719F0019721F4DE
:1011800060E08AE00C944C040895FC018081918118
:10119000009739F0228133818217930710F40C9461
:1011A000272890E080E008950F931F93CF93DF935B
:1011B000EC01FB0101900020E9F78F01061B170BE2
:1011C0008A819B81A801480F591F2C813D812417DA
:1011D000350768F028813981A801820F931F0E948A
:1011E000FD2D4A815B81400F511F5B834A83DF9154
:1011F000CF911F910F910895CF93DF93DC01149647
:101200002D913C911597232B79F0FB01CD91DC9129
:1012100060817181CE010E94302E009729F08C1BD5
:101220009D0BDF91CF9108958FEF9FEFFACF0F9332
:101230001F93CF93DF93CDB7DEB762970FB6F894C5
:10124000DEBF0FBECDBF8C01CB014AE0BE016F5F98
:101250007F4F0E947528BE016F5F7F4FC8010E94BB
:10126000D40862960FB6F894DEBF0FBECDBFDF91F3
:10127000CF911F910F9108950F931F93CF93DF93F9
:101280008C01EB01FC01808191810097E1F0688184
:10129000798161157105A9F0428153812C813D81CD
:1012A0004217530770F00E941A2E8C819D81F8011D
:1012B000958384831D821C82DF91CF911F910F91B2
:1012C00008950E949E2788819981F80191838083E7
:1012D0008A819B81938382838C819D819583848382
:1012E000198218821B821A82E5CFCF93DF93EC011B
:1012F00088819981009711F00E949E271982188297
:101300001D821C821B821A82DF91CF910895FC01FD
:1013100080819181009711F00C949E2708950F937E
:101320001F93CF93DF93EC0188819981009759F047
:101330002A813B812617370730F081E0DF91CF917A
:101340001F910F9108958B016F5F7F4F0E94402D79
:10135000009759F0998388831B830A832C813D81F0
:10136000232B59F7FC011082E8CF80E0E7CFEF9202
:10137000FF920F931F93CF93DF9341155105B1F067
:101380007B01EC010C811D81040F151FB8010E9427
:101390008F09882361F0288139818C819D81B70173
:1013A000820F931F0E941A2E1D830C8381E0DF9110
:1013B000CF911F910F91FF90EF900895EF92FF92C0
:1013C0000F931F93CF93DF93CDB7DEB728970FB658
:1013D000F894DEBF0FBECDBF7C01CB014AE08E0189
:1013E0000F5F1F4FB8010E947528F801019000207F
:1013F000E9F73197AF01401B510BB801C7010E94BB
:10140000B709811103C0C7010E947509C701289659
:101410000FB6F894DEBF0FBECDBFDF91CF911F9105
:101420000F91FF90EF900895CF93DF93EC01FB01B4
:1014300001900020E9F73197AF01461B570B0E943E
:10144000B709811103C0CE010E947509CE01DF9159
:10145000CF910895CF93DF9300D0CDB7DEB76983E6
:101460001A8241E050E0BE016F5F7F4F0E94B709D2
:101470000F900F90DF91CF910895EF92FF920F930D
:101480001F93CF93DF93EC017B018A01BA010E9485
:101490008F0981110BC0CE010E947509CE01DF9129
:1014A000CF911F910F91FF90EF9008951D830C83B2
:1014B000B701888199810E941A2EF0CFFB0101901B
:1014C0000020E9F73197AF01461B570B0C943D0AFA
:1014D000CF93DF93EC01FB018617970749F06081FA
:1014E00071816115710541F0448155810E943D0A69
:1014F000CE01DF91CF9108950E947509F9CFFC01CB
:101500001182108213821282158214820C94680A4E
:10151000FC011182108213821282158214826115DD
:10152000710551F0FB0101900020E9F73197AF01FF
:10153000461B570B0C943D0A0895AF92BF92CF9271
:10154000DF92EF92FF920F931F93CF93DF936C0183
:101550005B017A0189012417350720F48F2D790169
:10156000042F182F69E472E0C6010E94880AD50191
:101570001496CD91DC91EC16FD06E0F40C171D07D6
:1015800008F4E801D501ED91FC911197EC0FFD1FD6
:10159000108110826D917C916E0D7F1DC6016115C9
:1015A0007105A1F00E945E0AF50180819181C80F4A
:1015B000D91F1883C601DF91CF911F910F91FF9022
:1015C000EF90DF90CF90BF90AF9008950E94750983
:1015D000EBCF4F925F926F927F928F929F92AF92DA
:1015E000BF92CF92DF92EF92FF920F931F93CF9310
:1015F000DF93CDB7DEB7C154D1090FB6F894DEBF83
:101600000FBECDBF8B018FEF9FEFDC0189839A83E3
:10161000AB83BC838D839E83AF83B88718AA1FA634
:101620001EA61DA6198689AB19A61AA61BA61CA65E
:10163000DB01CD90DC9011971296ED90FC90EC0CB4
:10164000FD1CDBAACAAAFDAAECAACE14DF0408F08E
:10165000D6C06AE671E0C6010E94112E892B09F0FE
:1016600070C082E090E098AB8FA7CE01C2960E9436
:101670005408FC01808191818E159F0508F0BFC040
:10168000EAA8FBA86AE671E0C7010E94112E892B27
:1016900009F078C082E090E09EA78DA7D801ED9078
:1016A000FC90119712968D919C91E80EF91ECE0137
:1016B000C2960E945408FC01808191818E159F057D
:1016C00008F09DC06AA97BA940E250E0CE010996CE
:1016D0000E94212ED801ED90FC90119712968D91C9
:1016E0009C91E80EF91ECE01C2960E945408FC019E
:1016F000808191818E159F0508F081C0CE01C29630
:101700000E94D006811160C0EAA9FBA920E041E057
:1017100050E060E070E08191082E000C990B00977A
:1017200009F451C0C19787309105A8F76A017B0180
:1017300004C0CC0CDD1CEE1CFF1C8A95D2F72C29B2
:10174000EACF6DE671E0C6010E94112E892B19F4D3
:1017500081E090E088CFCE01C2960E94D006811130
:1017600084CFCE01C2960E94720820E831E541E0A4
:1017700050E00E94042D69837A838B839C8383E0ED
:1017800090E071CF6DE671E0C7010E94112E892BA8
:1017900019F481E090E080CFCE01C2960E94D0067D
:1017A00081117CCFCE01C2960E94720820E831E5FB
:1017B00041E050E00E94042D6D837E838F839887E3
:1017C00083E090E069CF29ABD8018D919C9111976E
:1017D00012960D911C91080F191FCE01C2960E94FE
:1017E0005408FC01808191818017910740F4CE015B
:1017F000C2960E94720869A77AA78BA79CA78FA59B
:1018000098A9039709F0D5C08DA59EA5039709F067
:10181000D0C049805A806B807C80CD80DE80EF8094
:10182000F8842296CCAEDDAEEEAEFFAE229760E736
:1018300071E0CE01C2960E94880ABE016E5C7F4FA5
:10184000CE01C8960E947F0A80E1882E8EE0982EF5
:10185000A12CB12CC301B201A50194010E94042D59
:10186000B901CE01C8960E94DE096DE771E00E94C1
:10187000140A8C019CE3C92ED12CE12CF12CC3015C
:10188000B201A70196010E94042D2B01CA01B901E2
:10189000A70196010E94042DC8010E94DE096DE790
:1018A00071E00E94140AB2010E94DE090E949407AE
:1018B000CE01C8960E948709CE01C2960E94870970
:1018C0006FE771E0CE01C2960E94880ABE016E5C8D
:1018D0007F4FCE01C8960E947F0A22966CAD7DADE7
:1018E0008EAD9FAD2297A50194010E94042DB901F0
:1018F000CE01C8960E94DE096DE771E00E94140ACD
:101900008C0122966CAD7DAD8EAD9FAD2297A70167
:1019100096010E94042D4B01CA01B901A70196014D
:101920000E94042DC8010E94DE096DE771E00E944B
:10193000140AB4010E94DE090E949407CE01C896E1
:101940000E948709CE01C2960E94870901E010E03B
:1019500089A990E098012150310902C09595879599
:101960002A95E2F780FF20C06BE871E0CE01C296B5
:101970000E94880ABE016E5C7F4FCE01C8960E940D
:101980007F0AB801CE01C8960E94DE0960E971E0C5
:101990000E94140A0E949407CE01C8960E948709EB
:1019A000CE01C2960E9487090F5F1F4F08301105B4
:1019B00079F6CF5BDF4F0FB6F894DEBF0FBECDBF19
:1019C000DF91CF911F910F91FF90EF90DF90CF901B
:1019D000BF90AF909F908F907F906F905F904F904F
:1019E00008952F923F924F925F926F927F928F92C3
:1019F0009F92AF92BF92CF92DF92EF92FF920F939E
:101A00001F93CF93DF9300D000D000D0CDB7DEB7C7
:101A10001C015B016DE971E0CE0101960E94880A0C
:101A2000BE016F5F7F4FC5010E94FC087C01CE01A3
:101A300001960E9487092FEFE216F206F9F4A12C15
:101A4000B12C00E010E0B501C80126960FB6F8945D
:101A5000DEBF0FBECDBFDF91CF911F910F91FF90E1
:101A6000EF90DF90CF90BF90AF909F908F907F903E
:101A70006F905F904F903F902F90089585E0E80E13
:101A8000F11CD50114960D911C911597E016F106E5
:101A900070F48D909C906AE370E0C4018E0D9F1DE0
:101AA0000E94062E6C01C818D908892B19F4CC2481
:101AB000CA94DC2C26010D2C000C66087708BFEFB9
:101AC0004B165B066B067B0609F4B9CFE016F106F0
:101AD00078F4F501808091806CE270E0C4018E0D95
:101AE0009F1D0E94062E8C0108191909892B11F4DB
:101AF0000FEF1FEFC801012E000CAA0BBB0B8F3F8D
:101B0000FFEF9F07AF07BF0709F445C08415950590
:101B1000A605B7050CF03FC09801A701B501CE019D
:101B200001960E949D0ACE0101960E946708962E9A
:101B3000CE0101960E94870924E0291508F47FCF81
:101B4000A8014F5F5F4F9601B501CE0101960E943B
:101B50009D0ACE0101960E9467086B017C01CE01AF
:101B600001960E948709892D1C141D041E041F0460
:101B70000CF065CFD1011296ED91FC9113975601AF
:101B80008701309709F45FCF14962D913C91A601FF
:101B9000B701099558CF9601A701B501CE0101966D
:101BA0000E949D0ACE0101960E9467086B017C018C
:101BB000CE0101960E9487091C141D041E041F04F7
:101BC0000CF03DCF8FEFD6CF2F923F924F925F9286
:101BD0006F927F928F929F92AF92BF92CF92DF923D
:101BE000EF92FF920F931F93CF93DF9300D000D01B
:101BF000CDB7DEB79C838B836B015A834983190170
:101C00002701380169E472E00E94880A0E940E05EB
:101C10004B015C010E940E05681979098A099B092C
:101C20006415750586059705E8F5D6018D919C919B
:101C3000DC01ED91FC910084F185E02D09951816E9
:101C4000190644F7F60180819181DC01ED91FC9148
:101C50000284F385E02D0995882339F3682F8B8161
:101C60009C810E942A0A69817A818B819C810E94D1
:101C7000FC080196B9F4B1018B819C810E94FC089B
:101C8000019681F46B817C81C6010E94F10C672B67
:101C9000682B692B51F269E472E08B819C810E9470
:101CA0005E0AC3CF8B819C810F900F900F900F9095
:101CB000DF91CF911F910F91FF90EF90DF90CF9028
:101CC000BF90AF909F908F907F906F905F904F905C
:101CD0003F902F9008954F925F926F927F928F92D4
:101CE0009F92AF92BF92CF92DF92EF92FF920F93AB
:101CF0001F93CF93DF93EC017B016A012801390127
:101D000069E472E00E94880A0E940E054B015C01A2
:101D10000E940E05681979098A099B0964157505E1
:101D20008605970588F5D7018D919C91DC01ED9191
:101D3000FC910084F185E02D09951816190644F7E9
:101D4000F70180819181DC01ED91FC910284F385A2
:101D5000E02D0995882339F3682FCE010E942A0AC5
:101D6000B601CE010E94FC08019671F4BE01C701C4
:101D70000E94F10C672B682B692BA9F269E472E0D1
:101D8000CE010E945E0ACFCFCE01DF91CF911F918D
:101D90000F91FF90EF90DF90CF90BF90AF909F900A
:101DA0008F907F906F905F904F9008952F923F9209
:101DB0004F925F926F927F928F929F92AF92BF925B
:101DC000CF92DF92EF92FF920F931F93CF93DF9307
:101DD000CDB7DEB762970FB6F894DEBF0FBECDBFAA
:101DE0002C013B014A011901580169E472E0CE015E
:101DF0000D960E94880AB301CE0101960E947F0AC7
:101E000097018601AE014F5F5F4FB201CE01079689
:101E10000E946B0EBE01695F7F4FCE010D960E943E
:101E20003C09CE0107960E948709CE0101960E94C7
:101E30008709B301CE010D960E94FC08019609F4B2
:101E4000B3C0B401CE010D960E94FC086C01990F3D
:101E5000EE08FF08B101CE010D960E94FC089C011E
:101E6000092E000CAA0BBB0B4FEFC416D406E406D8
:101E7000F40609F43FC08F3F9F4FAF4FBF4F09F4A7
:101E800041C0F40184819581B701A601480F591F13
:101E9000611D711DBE01635F7F4FCE0101960E94DF
:101EA0009D0ABE016F5F7F4FC5010E943C09CE01B4
:101EB00001960E94870911E0CE010D960E948709C4
:101EC000812F62960FB6F894DEBF0FBECDBFDF91B3
:101ED000CF911F910F91FF90EF90DF90CF90BF9027
:101EE000AF909F908F907F906F905F904F903F90BA
:101EF0002F9008958F3F9F4FAF4FBF4F19F050E085
:101F000040E0C8CF63EA71E0CE0101960E94880AE2
:101F1000BE016F5F7F4FC5010E94FC087C01CE01AE
:101F200001960E9487092FEFE216F206A1F09701B1
:101F300050E040E0BE01635F7F4FCE0101960E94FA
:101F40009D0ABE016F5F7F4FC5010E943C09CE0113
:101F500001960E94870965EA71E0CE0101960E9410
:101F6000880ABE016F5F7F4FC5010E94FC087C019B
:101F7000CE0101960E9487094FEFE416F406A1F006
:101F8000970150E040E0BE01635F7F4FCE010196B4
:101F90000E949D0ABE016F5F7F4FC5010E943C09F0
:101FA000CE0101960E948709BE01635F7F4FC50184
:101FB0000E94680A10E080CF8F929F92AF92BF92EA
:101FC000CF92DF92EF92FF920F931F93CF93DF9305
:101FD000CDB7DEB762970FB6F894DEBF0FBECDBFA8
:101FE0006C017B0149015A0169E472E0CE010D9652
:101FF0000E94880AB701CE0101960E947F0A9501CE
:102000008401AE014F5F5F4FB601CE0107960E947B
:102010006B0EBE01695F7F4FCE010D960E943C0999
:10202000CE0107960E948709CE0101960E9487097A
:10203000B701CE010D960E94FC087C01CE010D96E1
:102040000E94870981E0EF20E09409F480E0629625
:102050000FB6F894DEBF0FBECDBFDF91CF911F91B9
:102060000F91FF90EF90DF90CF90BF90AF909F9037
:102070008F900895CF92DF92EF92FF920F931F936C
:10208000CF93DF9300D000D000D0CDB7DEB78C0166
:1020900069E472E0CE0101960E94880A0E940E0552
:1020A0006B017C010E940E056C197D098E099F0948
:1020B0006A3071058105910570F5D8018D919C916B
:1020C000DC01ED91FC910084F185E02D0995892BCF
:1020D00049F3F80180819181DC01ED91FC9102844A
:1020E000F385E02D09958823E9F2682FCE0101964A
:1020F0000E942A0ABE016F5F7F4FC8010E94F10C47
:10210000672B682B692B51F269E472E0CE010196CE
:102110000E945E0AC3CFCE0101960E9487092696CF
:102120000FB6F894DEBF0FBECDBFDF91CF911F91E8
:102130000F91FF90EF90DF90CF900895CF92DF92B4
:10214000EF92FF920F931F93CF93DF93CDB7DEB73C
:10215000AA970FB6F894DEBF0FBECDBF8C01690100
:102160007A01CE014F960E947F0A6AEA71E0CE01A1
:1021700085960E94880A69E472E0CE0149960E9421
:10218000880AC8010E943A1061EB74E0D8018D9171
:102190009C910E94F2022AE041E050E060E070E091
:1021A000F801808191810E94F3066EEA74E0D80103
:1021B0008D919C910E94F202BE016B5D7F4FF801F0
:1021C000808191810E94E4026AEA74E0D8018D91D5
:1021D0009C910E94F202BE01615E7F4FF8018081F6
:1021E00091810E94E40267EA74E0D8018D919C918C
:1021F0000E94F202B701A601F801808191810E943C
:1022000053076EEA71E0CE010D960E94880A6EEBCC
:1022100071E0CE0107960E94880A67EA71E0CE015C
:1022200001960E94880A69E472E0CE0143960E94FA
:10223000880A0E940E056B017C010E940E056C1934
:102240007D098E099F09603177428105910508F06B
:102250004BC0D8018D919C91DC01ED91FC910084E3
:10226000F185E02D0995181619063CF7F8018081D3
:102270009181DC01ED91FC910284F385E02D0995BB
:10228000882339F3682FCE0143960E942A0ABE01A3
:102290006F5F7F4FCE0143960E94FC08019621F5A7
:1022A000BE01695F7F4FCE0143960E94FC080196F4
:1022B000D9F4BE01635F7F4FCE0143960E94FC08B4
:1022C000019691F4BE016D5E7F4FC8010E94F10C32
:1022D000672B682B692B09F4BCCF69E472E0CE014F
:1022E00043960E945E0AB5CFBE016D5E7F4FCE0160
:1022F00049960E943C09CE0143960E948709CE016F
:1023000001960E948709CE0107960E948709CE0197
:102310000D960E94870967EA71E0CE0107960E9438
:10232000880ABE01695F7F4FCE0149960E94FC0872
:1023300011E00196A9F46EEA71E0CE0101960E94C7
:10234000880ABE016F5F7F4FCE0149960E94FC084C
:1023500011E0019609F410E0CE0101960E94870970
:10236000CE0107960E948709CE0149960E948709EF
:10237000CE0185960E948709CE014F960E9487095B
:10238000812FAA960FB6F894DEBF0FBECDBFDF91A6
:10239000CF911F910F91FF90EF90DF90CF90089514
:1023A000CF92DF92EF92FF920F931F93CF93DF9321
:1023B000CDB7DEB7A4970FB6F894DEBF0FBECDBF82
:1023C0006C018B01BA01CE0149960E947F0AB801C7
:1023D000CE014F960E947F0A69E472E0CE014396D7
:1023E0000E94880AC6010E943A106CE974E0F60166
:1023F000808191810E94F202BE01615E7F4FF601F1
:10240000808191810E94E40268E974E0F601808194
:1024100091810E94F202BE01675E7F4FF6018081CA
:1024200091810E94E40266E974E0F6018081918165
:102430000E94BD0764EC71E0CE0107960E94880AF5
:1024400067EA71E0CE0101960E94880A10E1E12E50
:1024500017E2F12E00E010E09E01295F3F4FAE0130
:102460004F5F5F4FB601CE010D960E94E40DBE0195
:10247000635F7F4FCE0143960E943C09CE010D96CB
:102480000E948709CE0101960E948709CE01079616
:102490000E94870967EA71E0CE0101960E94880ACE
:1024A000BE016F5F7F4FCE0143960E94FC086C0116
:1024B000CE0101960E948709CE0143960E948709AA
:1024C000CE014F960E948709CE0149960E94870946
:1024D00081E0CD20C09409F480E0A4960FB6F89472
:1024E000DEBF0FBECDBFDF91CF911F910F91FF9047
:1024F000EF90DF90CF9008952F923F924F925F928E
:102500006F927F928F929F92AF92BF92CF92DF9203
:10251000EF92FF920F931F93CF93DF93EC015B0138
:102520006A010E940E052B013C011E012DEF221AAB
:102530002EEF320A7E018BEFE81A8EEFF80AF101D6
:1025400080819181F70120813181821B930B97FD5E
:1025500093958C159D0580F40E940E0564197509EC
:10256000860997096C3D75408105910528F488819D
:1025700099810E943A10E3CF360146012E0123E0F3
:10258000420E511C8114910479F0F10180819181F6
:10259000F70120813181821B930B97FD9395009762
:1025A000B9F4360168187908C301DF91CF911F9102
:1025B0000F91FF90EF90DF90CF90BF90AF909F90E2
:1025C0008F907F906F905F904F903F902F900895E5
:1025D000F70100811181C0E0D1E0C01BD10B8C1646
:1025E0009D060CF4E4018C179D070CF4EC01B2017C
:1025F000600F711FAE01C5010E94FD2D0C0F1D1F44
:102600001127F701118300838C1A9D0AAC0EBD1EA1
:10261000B9CFCF92DF92EF92FF920F931F93CF9398
:10262000DF93CDB7DEB768970FB6F894DEBF0FBE65
:10263000CDBFFC011282EB5FFE4F118210823297F8
:1026400011821082FC01C080D18069E472E0CE0169
:1026500043960E94880AC6010E943A1065E771E01D
:10266000F601808191810E94F20261E0F601808191
:1026700091810E947B0769EC71E0CE0107960E9470
:10268000880A67EA71E0CE0101960E94880A18E87C
:10269000E12E13E1F12E00E010E09E01295F3F4F93
:1026A000AE014F5F5F4FB601CE010D960E94E40D63
:1026B000BE01635F7F4FCE0143960E943C09CE016D
:1026C0000D960E948709CE0101960E948709CE01CE
:1026D00007960E94870967EA71E0CE0107960E947B
:1026E000880ABE01695F7F4FCE0143960E94FC08B5
:1026F000019651F469EC71E0CE0101960E94880ABE
:10270000CE0101960E948709CE0107960E94870993
:10271000CE0143960E94870968960FB6F894DEBFF3
:102720000FBECDBFDF91CF911F910F91FF90EF9022
:10273000DF90CF900895CF92DF92EF92FF920F93A8
:102740001F93CF93DF93CDB7DEB7C65AD1090FB62B
:10275000F894DEBF0FBECDBF6C0146E650E06AE8DC
:1027600071E0CE0101960E946C28CE0189599F4FDD
:102770007C0106E610E09E012F5F3F4F50E040E0F5
:1027800061E1C6010E94121ACA55DF4F0FB6F894D4
:10279000DEBF0FBECDBFDF91CF911F910F91FF9094
:1027A000EF90DF90CF9008953F924F925F926F929B
:1027B0007F928F929F92AF92BF92CF92DF92EF92D1
:1027C000FF920F931F93CF93DF93CDB7DEB7A397FD
:1027D0000FB6F894DEBF0FBECDBF6C010DB71EB7AC
:1027E0001BA30AA360E070E0CB010E94DB04D601CA
:1027F00057968D919C915897B12C0297B1F05696AF
:102800008C9156978F5F56968C93569754962D9130
:102810003C915597232B49F1BB24B394D60156968E
:102820008C915697815056968C938B2DEAA1FBA1E3
:102830000FB6F894FEBF0FBEEDBFA3960FB6F89487
:10284000DEBF0FBECDBFDF91CF911F910F91FF90E3
:10285000EF90DF90CF90BF90AF909F908F907F9040
:102860006F905F904F903F9008958330A8F6ED9160
:10287000FC918281882309F49FC4FE0131965F0197
:10288000D6010D911C91F801808191810E943A102E
:10289000F801ED5FFE4F8081918132962081318178
:1028A000821B930B97FD9395181619060CF084C4A0
:1028B00045E050E0BE01695E7F4FD6018D919C914D
:1028C0000E947C120097E1F2059709F07DC0888D87
:1028D000998D982789279827998F888FEA8CFB8C68
:1028E000FE24EF24FE24FB8EEA8E892B09F46CC0B3
:1028F0008F89811181C00E940E05F601668377835E
:10290000808791872789308D8A8D9B8D232B09F0B5
:102910006FC0288D398D2130310509F069C08930AB
:10292000910509F442C0883C910519F0049709F01B
:1029300052C00E943F0769E673E08AEC92E00E9471
:10294000F202D60116964D915D916D917C91199789
:102950001E968D919D910D90BC91A02D481B590BF9
:102960006A0B7B0B2AE08AEC92E00E94F30664E695
:1029700073E08AEC92E00E94BD07F60186819781A0
:10298000A085B18586879787A08BB18B01E010E089
:10299000108F078BC6010E949B1360E070E0CB0193
:1029A0000E94DB040E943A1D6BCF0E943F0763E642
:1029B00074E08AEC92E00E94BD0783E090E0D601CB
:1029C00058969C938E935797F601808191810E942F
:1029D0000913B12C23CF0E943F076CE474E08AEC0A
:1029E00092E00E94F2028A8D9B8D0E94A707ECCF95
:1029F000059709F045CFE8CFB1E0EB16FB06A0F054
:102A00000E943F076BE374E08AEC92E00E94F202BE
:102A10008A8D9B8D0E94A707F601108E178A8081F0
:102A200091810E9409132CCF8DB69EB6C7010196E5
:102A30000DB71EB7081B190B0FB6F8941EBF0FBEBB
:102A40000DBF0F5F1F4FA701B801D6018D919C915B
:102A50000E947C128E159F0509F081C0EA8DFB8DC6
:102A6000E00FF11F10820E940E05F6016683778346
:102A7000808791878F89813109F4FDC2B0F5863056
:102A800011F18F3009F4D5C08230A9F5D6015796DF
:102A90008D919C91892BB9F40E943F0765E374E006
:102AA0008AEC92E00E94BD0701E010E0F601108F71
:102AB000078BC6010E949B1360E070E0CB010E946F
:102AC000DB040E943A1D488D598DF12CE12C08EC55
:102AD00010E030E020E060E0C6010E94121A0FB65C
:102AE000F8949EBE0FBE8DBECBCE8D3179F268F4C8
:102AF000843109F49EC0D60158961C921E925797B5
:102B00008D919C910E940913EACF893291F087330D
:102B100091F78A8D9B8D892B11F30E943F076CE101
:102B200074E08AEC92E00E94F202C8010E946807F9
:102B3000D6CF84819581892B39F480E290E00E9480
:102B40000227F60195838483EA8CFB8CE00EF11E4C
:102B50001A830983FC82EB820E151F0530F00FB635
:102B6000F8949EBE0FBE8DBE2FCF40E250E0B8015C
:102B7000D60114968D919C910E94212EC5010E9430
:102B80005408FC018081918100E510E08E159F05BD
:102B900020F4C5010E9472088B010E943F0765E284
:102BA00074E08AEC92E00E94F202D60114966D91D4
:102BB0007C916115710521F08AEC92E00E94E40697
:102BC0006AE38AEC92E00E94B603C8010E94A7075C
:102BD000F601808191810E940913D6018D919C910B
:102BE000119714962D913C911597FC01E95FFE4FCA
:102BF00031832083875F9E4FFC01118300835896A9
:102C00001C921E9257970E940E05DC01CB0188583A
:102C10009341A109B109F60182879387A487B587FB
:102C200086839783A087B18786879787A08BB18B90
:102C300056CF888D998DD60155969C938E93549737
:102C4000EA8DFB8DF9A3E8A33F01600E711E1D8F75
:102C50000C8F7F8E6E8E0615170508F0A1C1D80166
:102C6000ED90FC90CE014C960E945408FC018081AE
:102C700091818615970508F093C18C8D9D8DDC019F
:102C80002C912134C1F501960E9427284EE0342E64
:102C9000380E0697ACF1F6E7EF16F2E7FF0609F4F7
:102CA0007FC108F0AAC331E6E31632E7F30609F460
:102CB0008DC344E6E41642E7F40609F4B6C050E7D3
:102CC000E5165DE6F506A1F10E943F076BE074E0B2
:102CD0008AEC92E00E94F202C8010E946807D601C5
:102CE00054964D915C91F12CE12C02E010E030E023
:102CF00020E060E0E1C0CE014C960E94C508382E6D
:102D0000B6E7EB16B2E7FB0609F46DC138F5F1E65C
:102D1000EF16F2E7FF0609F4F0C024E6E21622E718
:102D2000F20609F484C030E7E3163DE6F30661F6E7
:102D30008C8D9D8D8615970508F032C1DC012C9194
:102D4000213409F03FC001960E9427283EE0F32E6F
:102D5000F80E0697E4F1FF24FA9439C044E6E4162D
:102D600047E7F40609F4AEC056E7E51657E7F5065F
:102D700009F452C181E6E81687E7F80609F0A4CF06
:102D8000CE014C960E945408DC018D919C918615D1
:102D9000970508F005C161E0832D0E947A04CE01F9
:102DA0004C960E94C5088C0161E0832D0E947A0434
:102DB0000115110509F49CC00F3F110509F0CBC0A6
:102DC00061E097C0CE014C960E94C508F82ECE0156
:102DD0004C960E9454080C8D1D8D65ED71E0C80164
:102DE0000E94112E60E0892B79F068ED71E0C80136
:102DF0000E94112E892B39F06CED71E0C8010E9400
:102E0000112E892B49F461E08F2D0E947A04CE01A6
:102E10004C960E9454088CCF60EE71E0C8010E946D
:102E2000112E892BA1F762E0EFCF33243A94BA8AAE
:102E3000A98A1C8A1B8AE0E1F0E0FE8BED8B63EE31
:102E400071E0CE0141960E94D408032D10E0B80134
:102E5000CE0141960E941709F801E958FC4F849170
:102E6000F801EA51FB4FF4900E521B4FF801049108
:102E700060E070E0002389F081110E942304E02FBC
:102E8000F0E0EE0FFF1FE254FB4FA591B491EC91DF
:102E9000FE2261E070E009F460E0CE0141960E94FC
:102EA00017090B891C890150110929893A89F12CCC
:102EB000E12C50E040E064E1C6010E94121A70C0AB
:102EC00033243A94CE014C960E945408DC018D9133
:102ED0009C918615970508F063C061E0832D0E94E0
:102EE0007A04CE014C960E94C50861E0892B09F452
:102EF00060E0832D0E944C0453C0BA8AA98A1C8AC0
:102F00001B8AE0E1F0E0FE8BED8B66EE71E0CE0116
:102F100041960E94D408632D70E0CE0141960E9434
:102F20001709FDE0F31510F402EF300E832D8770C2
:102F3000806480937C0080917A00806480937A0022
:102F400080917A0086FDFCCF8091780060917900B5
:102F5000762F682FA2CFE32DF0E0E958FC4FE491E3
:102F6000E33039F148F4E130B9F0E230E9F000380B
:102F700011050CF025CFBCCFE73029F1E83059F12D
:102F8000E430A9F7809180008062809380001093E4
:102F90008B0000938A0004C084B5806884BD07BD9F
:102FA000F601158A148A9BCD84B5806284BD08BD64
:102FB000F7CF809180008068809380001093890013
:102FC00000938800EDCF8091B00080688093B000BE
:102FD0000093B300E5CF8091B00080628093B00091
:102FE0000093B400DDCF3982BFE1B315C8F2E32D01
:102FF000F0E0EE0FFF1FE557FC4F259134912115AE
:10300000310571F2E2E02A3A3E0751F2C501F901B9
:103010000995C6CF33243A94CE014C960E945408A9
:103020002C8D3D8DC901801B910B08A119A1081B96
:10303000190B3A8329831C830B831E830D83398AE2
:103040001FE1131508F4ACCFE32DF0E0EE0FFF1FE6
:10305000E553FC4F259134912115310509F4A0CF9A
:1030600042E0293A340709F49BCFB501CE014196DD
:10307000F901099595CF8A8D9B8D800F911F1D8F2A
:103080000C8F9F8F8E8F0817190708F028CDD80155
:103090004D905D906D907C90CE014C960E945408AE
:1030A0008C8D9D8DB2E74B16B4E75B06B3E66B06DD
:1030B000710409F014CD0E9445282B013C01E0EC7D
:1030C0004E16EFEC5E06E2EE6E06E0E57E0608F4D4
:1030D00006CD0E94AC1E0E94D11E0E94171F0E94A6
:1030E000D11E0E94171F0E94D11E0E94171F0E940E
:1030F000D11E0E94171FB301A2018AEC92E00E9428
:1031000053070E94D11E0E94171F6090C302712CAA
:103110000E94D11E0E94171FE090C402F12C0E9451
:10312000D11E0E94171F0091C50210E069EE71E0E8
:10313000C5010E94880AB501CE0141960E947F0A0E
:10314000B801CE0141960E94DE096DE771E00E9450
:10315000140AB7010E94DE096DE771E00E94140AAB
:10316000B3010E94DE090E949407CE0141960E949D
:103170008709C5010E9487090E94D11E0E94171F5E
:103180000091C60210E066EF71E0C5010E94880A56
:10319000B501CE0141960E947F0AB801CE01419649
:1031A0000E94DE090E949407CE0141960E94870981
:1031B000C5010E94870993CC0E940E052B013C019A
:1031C000D6018D919C911197FC01B28057962D915B
:1031D0003C9158972130310509F071C0B1100DC0F4
:1031E0001E964D925D926D927C92519758961C92CC
:1031F0001E9257970E94091311CBF6018681978181
:10320000A085B18593018201081B190B2A0B3B0B8A
:10321000D901C80189331AE49107A105B10580F0ED
:103220000E943F0764E874E08AEC92E00E94BD07C8
:10323000D60158961C921E9257978D919C91C7CBA0
:1032400081319742A105B10598F4F60182859385F5
:10325000A485B58593018201081B190B2A0B3B0B32
:10326000D901C80181319742A105B10508F4D4CA3A
:10327000F60186859785A089B18993018201081B93
:10328000190B2A0B3B0BD901C801893B9B40A105B7
:10329000B10508F4C1CAF12CE12C10E000E030E0E7
:1032A00020E050E040E066E0C6010E94121AD6011C
:1032B0001E964D925D926D927C925197AFCA232BD0
:1032C00009F0AACAF601468557856089718993017C
:1032D0008201041B150B260B370BB901A801BB207B
:1032E000B9F0493B5B406105710508F495CA0E943D
:1032F0003F0766E774E08AEC92E00E94BD07D601C2
:103300008D919C910E940913F601108E178A61CB52
:10331000493853416105710508F47ECA0E940913BA
:10332000D6010D911C91F801E95FFE4F608171811A
:103330006115710531F4F60146865786608A718AF7
:103340006DCAF801E75FFE4FE080F180E114F104FF
:1033500091F3D8018D909C90CE0101960E94880A2D
:10336000970150E040E0BE016F5F7F4FC4010E94B3
:103370009E10F8018283CE0101960E948709D80130
:103380001296AC90AA20B9F281E090E0F601938BFE
:10339000828B22813381F90101900020E9F7319776
:1033A0008F01021B130BF12CE12C41E050E06DE189
:1033B000C6010E94121AF60182859385A485B585FF
:1033C00086879787A08BB18BBA2C28CABA8AA98A1C
:1033D0001C8A1B8AE0E1F0E0FE8BED8B66EE71E06B
:1033E000CE0141960E94D4086FEF70E0CE01419665
:1033F0000E94170933243A9497CD84E6E81687E7AC
:10340000F80609F45DCD96E7E91697E7F90609F4A1
:1034100001CEA1E6EA16A7E7FA0609F055CC332457
:103420003A94AECC2F923F924F925F926F927F92DE
:103430008F929F92AF92BF92CF92DF92EF92FF92C4
:103440000F931F93CF93DF93CDB7DEB72E970FB6B1
:10345000F894DEBF0FBECDBF7C01762E6A01590104
:103460002DB73EB73A872987DC01ED91FC91828127
:10347000882309F44DC1662371F0862F8B7F82303B
:1034800009F48CC1BDE16B1731F0F7018789908D8C
:10349000019709F03DC1C114D104B9F4D701549684
:1034A000CD90DC905597C114D10479F452968D914A
:1034B0009C915397019609F4F1C053969C938E9377
:1034C0005297D7015296CD90DC9084EF870D8930CA
:1034D00090F5F70182859385A485B585468157814E
:1034E00060857185481759076A077B0710F4AC019E
:1034F000BD011A012B01F2E42F0E311C411C511C9D
:103500000E940E05A2019101261B370B480B590B97
:10351000DA01C901B7FDC8C0C7010E94D4130E94D7
:103520000E05A2019101261B370B480B590BDA013E
:10353000C901B7FFF1CF4801B5E08B0E911CA11472
:10354000B10419F495E0892E912CEDB7FEB7E81976
:10355000F9090FB6F894FEBF0FBEEDBF2DB73EB709
:103560002F5F3F4F38872F837182DC24CD24DC24EA
:10357000D9011296DC92CE921197902F812F14963A
:103580009C938E931397A114B10451F0011511056A
:1035900039F08DB79EB70696A801B5010E94FD2DA2
:1035A000D12CC12CC814D90408F0BDC05401AC18EA
:1035B000BD08B8E2AB16B10418F088E2A82EB12C11
:1035C000D701ED91FC9100811181950150E040E01F
:1035D0002B873C874D875E87C8010E943A1068E5BB
:1035E00073E0D8018D919C910E94F2022AE041E0A3
:1035F00050E060E070E0F801808191810E94F30664
:1036000066E573E0D8018D919C910E94F2024B8592
:103610005C856D857E85F801808191810E945307CC
:1036200064E072E0CE0101960E94880A28E833E146
:1036300040E050E0BE016F5F7F4FC8010E94DC0F89
:10364000782ECE0101960E948709772009F44CC09C
:10365000C8010E943A102F8038842C0C3D1C412C4C
:10366000512C32012B853C854D855E8542165306D3
:103670006406750610F5D8018D919C91F101619158
:103680001F01DC01ED91FC910190F081E02D099585
:10369000BFEF4B1A5B0A6B0A7B0AE4CF81E090E034
:1036A000F701938B828B0DCFD70156968C918111A8
:1036B00042CFC7010E94D4133ECF66E072E0CE0134
:1036C00001960E94880A20E137E240E050E0BE0106
:1036D0006F5F7F4FC8010E94DC0F182FCE0101964B
:1036E0000E948709111102C0B12CA12C60E070E08A
:1036F000CB010E94DB04A114B10491F4F701808195
:1037000091810E940913D70158961C921E925797D7
:1037100029853A850FB6F8943EBF0FBE2DBF1EC057
:10372000CA0CDB1C3FCF8C149D0441F0F701108EB6
:10373000178A808191810E940913EACF0E940E05A9
:10374000D7011A966D937D938D939C931D97E98570
:10375000FA850FB6F894FEBF0FBEEDBF49855A85B6
:103760000FB6F8945EBF0FBE4DBF2E960FB6F894FD
:10377000DEBF0FBECDBFDF91CF911F910F91FF90A4
:10378000EF90DF90CF90BF90AF909F908F907F9001
:103790006F905F904F903F902F900895452B09F0C8
:1037A000CACE7CCECF92DF92EF92FF920F931F93FF
:1037B000CF93DF93CDB7DEB7C75AD1090FB6F894D0
:1037C000DEBF0FBECDBF8C016A017B01CE01019629
:1037D000CE55DF4F99838883C25AD040CC55DF4FF6
:1037E00019821882C45AD04080E890E0CA55DF4F51
:1037F00099838883C65AD0406EE072E0CE018E5520
:103800009F4F0E94D408B801CE018E559F4F0E9451
:1038100017098E010F571F4F23E045E0C701B6017E
:103820000E94E426B801CE018E559F4F0E94D40815
:10383000CC55DF4F08811981C45AD040015011097D
:10384000CE55DF4F28813981C25AD040F12CE12C6E
:1038500050E040E064E181EE94E00E94121AC95504
:10386000DF4F0FB6F894DEBF0FBECDBFDF91CF9113
:103870001F910F91FF90EF90DF90CF9008958F925E
:103880009F92AF92BF92CF92DF92EF92FF92CF932F
:103890000E941A05882349F0809192038B3028F00A
:1038A0008D3050F085518230C8F1812C912C20EC64
:1038B000A22E2FE7B22E1EC060918D0370E090E023
:1038C00080E00E94002B2DEC3CEC4CEC5DE30E9470
:1038D0005F2B6B017C0160918C0370E090E080E0D5
:1038E0000E94002B9B01AC01C701B6010E946F2C06
:1038F0004B015C010E941A05882309F474C0809171
:1039000092038C3009F47CC0D8F48B3091F1C12C37
:10391000D12C80ECE82E8FE7F82E55C060918C03F7
:1039200070918D0376276727762790E080E00E94CC
:10393000FE2A2DEC3CEC4CEC5DE30E945F2BD8CFD3
:103940008551823020F7C0918E036C2F70E0762F66
:10395000662766277F7780918F03682B90E080E051
:103960000E94FE2A2DEC3CEC4CEC5DE30E945F2BA8
:1039700063C060918E0370E090E080E00E94FE2AB8
:103980006B017C01C0918F03C7FF0AC0AC019B0192
:1039900060E070E080E89FEB0E946E2C6B017C0180
:1039A000CF706C2F70E090E080E00E94002B2DEC37
:1039B0003CEC4CEC5DE30E945F2BA70196010E945A
:1039C0006F2C6B017C01A5019401C501B4010E941B
:1039D000DB2C811108C0A7019601C701B6010E9426
:1039E000DB2C882391F181E192E0CF91FF90EF9061
:1039F000DF90CF90BF90AF909F908F900C9468070E
:103A0000C0918E036C2F70E090E080E00E94FE2A4F
:103A10006B017C0160918F036F7070E090E080E03B
:103A20000E94002B2DEC3CEC4CEC5DE30E945F2BE4
:103A3000A70196010E946F2C6B017C01C7FFC3CFC9
:103A4000F7FAF094F7F8F094BECFB701A60187E03B
:103A500090E00E94D21BB501A40186E090E0CF91D6
:103A6000FF90EF90DF90CF90BF90AF909F908F909E
:103A70000C94D21BEF92FF920F931F93CF93DF937F
:103A8000CDB7DEB7C658D1090FB6F894DEBF0FBE6A
:103A9000CDBFCE010196CF57DF4F99838883C158A0
:103AA000D040CD57DF4F19821882C358D04080E8EC
:103AB00090E0CB57DF4F99838883C558D04061E3AE
:103AC00072E0CE018F579F4F0E94D40865E372E0E9
:103AD000CE018F579F4F0E94D408CD57DF4F0881EA
:103AE0001981C358D04001501109CF57DF4F2881A9
:103AF0003981C158D040F12CE12C50E040E061E127
:103B000081EE94E00E94121ACA57DF4F0FB6F89464
:103B1000DEBF0FBECDBFDF91CF911F910F91FF9000
:103B2000EF9008951F920F920FB60F9211242F93CA
:103B30003F934F935F936F937F938F939F93AF9335
:103B4000BF93EF93FF938AEC92E00E949403FF915E
:103B5000EF91BF91AF919F918F917F916F915F9105
:103B60004F913F912F910F900FBE0F901F9018957E
:103B70001F920F920FB60F9211242F938F939F9342
:103B8000EF93FF93E091DA02F091DB028081E09104
:103B9000E002F091E10282FD1BC090818091E3027E
:103BA0008F5F8F732091E402821741F0E091E3026E
:103BB000F0E0E653FD4F958F8093E302FF91EF9184
:103BC0009F918F912F910F900FBE0F901F9018957E
:103BD0008081F4CF1F920F920FB60F9211242F9372
:103BE0003F938F939F93AF93BF938091B702909130
:103BF000B802A091B902B091BA023091B60223E0A6
:103C0000230F2D3758F50196A11DB11D2093B60243
:103C10008093B7029093B802A093B902B093BA020E
:103C20008091BB029091BC02A091BD02B091BE02F6
:103C30000196A11DB11D8093BB029093BC02A0937D
:103C4000BD02B093BE02BF91AF919F918F913F9102
:103C50002F910F900FBE0F901F90189526E8230FFD
:103C60000296A11DB11DD2CF1F920F920FB60F92D7
:103C700011242F933F934F935F936F937F938F9371
:103C80009F93AF93BF93EF93FF93E091C102F091A5
:103C9000C202309749F0A685B7858585968D91FF3C
:103CA00014C09C918923A1F4FF91EF91BF91AF9132
:103CB0009F918F917F916F915F914F913F912F9144
:103CC0000F900FBE0F901F9018959C91892361F75C
:103CD000A389B4899C918589809589238C93868951
:103CE00097890197F1F7608D718DA685B785558508
:103CF00038E020E0CB010197F1F7822F90E0959515
:103D00008795282F4C91452309F02068315091F771
:103D1000868D81FD20958091C00290E001968F7381
:103D200099273091BF02381799F0A091C002B0E0F6
:103D3000AA58BD4F2C938093C002828D938D01971A
:103D4000F1F7A389B4898C919589892B8C93ACCF99
:103D5000868D8160868FF1CF6093720270937302BB
:103D60008093740290937502645D7E4F8F4F9F4FD6
:103D700060936E0270936F02809370029093710251
:103D800082E090E090936D0280936C020E940E0599
:103D9000609368027093690280936A0290936B0249
:103DA0000895CF92DF92EF92FF920F931F930E949C
:103DB0000E058B019C01C0906802D0906902E090D2
:103DC0006A02F0906B0260917202709173028091AE
:103DD0007402909175020C191D092E093F09083EC5
:103DE000134021053105E0F0DC01CB010196A11D56
:103DF000B11D8093720290937302A0937402B093EA
:103E00007502B701A60148515C4F6F4F7F4F409339
:103E100068025093690260936A0270936B02C7CF85
:103E20001F910F91FF90EF90DF90CF9008954F92E8
:103E30005F926F927F928F929F92AF92BF92CF923A
:103E4000DF92EF92FF920F931F93CF93DF934B017B
:103E50005C018091640290916502A0916602B0912C
:103E6000670288159905AA05BB0509F4C6C08CE34D
:103E7000C82ED12CE12CF12CC501A70196010E947E
:103E8000042D6093C302CA01B901A70196010E94E3
:103E9000042D6093C402C501B40120E13EE040E07E
:103EA00050E00E94042DCA01B90128E130E040E051
:103EB00050E00E94042D6093C502C501B40120E8C2
:103EC00031E541E050E00E94042D69017A01CA0108
:103ED000B9016C5F7F4F8F4F9F4F27E030E040E08C
:103EE00050E00E94042D6F5F6093C602412C512C5C
:103EF000320140E004E610E0C0E9D1E0242F30E0D8
:103F00002E54384FF901E370FF273097F9F4C901B7
:103F1000B8010E94F02C892B31F4C901BE010E9426
:103F2000F02C892B99F48EE691E0A0E0B0E0480EE9
:103F3000591E6A1E7B1ED301C201AA27BB27C816C1
:103F4000D906EA06FB0638F04F5FD8CF8DE691E040
:103F5000A0E0B0E0ECCF4093C902C90164E670E094
:103F60000E94F02CEC01C90160E971E00E94F02C84
:103F7000309721F42097D9F40097C9F04DE651E02D
:103F800060E070E0441A550A660A770AC418D5083A
:103F9000E608F708AAE3B1E020E0213069F43097A1
:103FA000E9F5209711F40097C9F54DE106C04EE6FA
:103FB00051E060E070E0E6CF4C9150E070E060E0EE
:103FC00031E0320FC416D506E606F70640F0C41AF3
:103FD000D50AE60AF70A1196232F3C30F1F62F5F37
:103FE0002093C802C394C092C70280926402909248
:103FF0006502A0926602B0926702DF91CF911F9195
:104000000F91FF90EF90DF90CF90BF90AF909F9077
:104010008F907F906F905F904F9008954CE1CDCF3F
:104020001092CD021092CC0288EE93E0A0E0B0E0B6
:104030008093CE029093CF02A093D002B093D1028E
:104040002AE431E03093CB022093CA0225EC30E021
:104050003093D7022093D60224EC30E03093D9027B
:104060002093D80220EC30E03093DB022093DA0278
:1040700021EC30E03093DD022093DC0222EC30E0D2
:104080003093DF022093DE0226EC30E03093E10231
:104090002093E0021092E3021092E4021092E502F3
:1040A0001092E6021092FD041092FC041092FE049D
:1040B0001092020610920106109200061092FF055F
:1040C000109204061092030610920606109205063E
:1040D0002CEF34E03093E2042093E1041092E404E6
:1040E0001092E3041092E6041092E5041092E704A3
:1040F0001092E8041092E9041092EA041092EB0482
:104100001092EC041092ED041092EE041092EF0461
:104110001092F0041092F1041092F2041092F40440
:104120001092F3041092F6041092F5041092F70422
:104130001092F9041092F8041092FB041092FA0401
:104140002FEF3FEF3093E0042093DF0426E020932D
:1041500091032BE020939203ECEEF4E0E491E093E2
:104160009303E8EDF4E0E491E093940340E85EE328
:1041700060E070E04093990350939A0360939B032F
:1041800070939C031092700310926F0380937103DD
:1041900090937203A0937303B09374038CE591E042
:1041A00090936E0380936D031092840310928303A7
:1041B0001092860310928503109288031092870351
:1041C00010928A031092890360918B036E7F6D7F3A
:1041D00060938B036695617081E0682783E00E949D
:1041E0004C0461E083E00E947A04E9EEF4E0E4919B
:1041F000E0937D03E5EDF4E0E491F0E0EE0FFF1FC6
:10420000E853FB4F8591949190937F0380937E03B5
:1042100060E082E00E947A0480918B0381FD04C0FB
:1042200061E082E00E944C0482E080937903E8EE32
:10423000F4E0E491E0937A03E4EDF4E0E491F0E05B
:10424000EE0FFF1FE254FB4F8591949190937C03F6
:1042500080937B038DE693E09093680380936703DC
:1042600010926A031092690310926C0310926B0310
:104270000895CF93DF93CDB7DEB7A2970FB6F8942A
:10428000DEBF0FBECDBF789484B5826084BD84B597
:10429000816084BD85B5826085BD85B5816085BD41
:1042A00080916E00816080936E00109281008091F9
:1042B0008100826080938100809181008160809381
:1042C0008100809180008160809380008091B100A6
:1042D00084608093B1008091B00081608093B000D1
:1042E00080917A00846080937A0080917A00826065
:1042F00080937A0080917A00816080937A00809127
:104300007A00806880937A001092C10060E08AE0B1
:104310000E944C0460E089E00E944C0460E088E068
:104320000E944C0460E08BE00E944C0461E08AE053
:104330000E947A0461E089E00E947A0461E088E0EA
:104340000E947A0461E08BE00E947A0461E08AE0D6
:104350000E944C0461E089E00E944C0461E088E026
:104360000E944C0461E08BE00E944C04E091DA0270
:10437000F091DB0282E08083E091D602F091D702D7
:104380001082E091D802F091D90280E180831092EE
:10439000E202E091DE02F091DF0286E08083E091AC
:1043A000DC02F091DD02808180618083E091DC029B
:1043B000F091DD02808188608083E091DC02F091E1
:1043C000DD02808180688083E091DC02F091DD0273
:1043D00080818F7D808310928803109287031092D2
:1043E00086031092850310928403109283038DE953
:1043F00091E090938A038093890390917903963199
:1044000008F047C02DEB30E0309384032093830302
:104410002BE931E030938603209385032CE231E0D1
:1044200030938803209387032091680084E09830BC
:1044300048F031E09E3008F430E081E001C0880FA0
:104440003A95EAF7822B809368002DE630E09830A9
:1044500050F02BE630E09E3030F02CE630E0963124
:1044600010F030E020E03093810320938003292F67
:1044700030E0983008F0FDC081E001C0880F9A95C7
:10448000EAF7809382038091890390918A030197D0
:10449000F1F78091870390918803892B49F1E0918E
:1044A000C102F091C20223E0ED36F20709F1309724
:1044B00039F0A389B4899C918589809589238C934F
:1044C00080918B038E7F80938B031092C002109299
:1044D000BF028DE693E09093C2028093C102E09107
:1044E0008003F0918103808190918203892B8083E6
:1044F0006AE070E080E090E00E94DB0483E191E0FC
:104500009093E4048093E3040E940E05DC01CB0148
:1045100088589341A109B1098093EB049093EC046E
:10452000A093ED04B093EE048093E7049093E80425
:10453000A093E904B093EA048093EF049093F0040D
:10454000A093F104B093F2040E943F0765EC72E07F
:104550008AEC92E00E94BD0787E693E09093FB040B
:104560008093FA04E091E104F091E2049183808366
:1045700081ED97E090936A0380936903F0936C0355
:10458000E0936B038091E1049091E204FC01E95F08
:10459000FE4F2AE332E031832083875F9E4F20E580
:1045A00030E0DC012D933C9364EF71E080E090E01B
:1045B0000E94DB040E943F0766EB72E08AEC92E007
:1045C0000E94F2028DE091E00E9468070091FA04D7
:1045D0001091FB04C8010E943A1061E372E0F801F7
:1045E000808191810E94BD0767EA71E0CE0101964A
:1045F0000E94880A28EE33E040E050E0BE016F5F81
:104600007F4FC8010E94DC0F182FCE0101960E9437
:10461000870911113BC00E943F0760EA72E08AECF3
:1046200092E00E94BD078091E1049091E2040E9413
:1046300009131092F9041092F8040E940E054B0120
:104640005C018091F8049091F904019709F464C227
:104650000E940E05681979098A099B09683273421C
:104660008105910508F058C281EE94E00E94D413B0
:10467000E8CF9E3040F42850310981E001C0880F16
:104680002A95EAF7FECE2E503109F7CF0091FA04B1
:104690001091FB04C8010E943A106DE272E0D8014B
:1046A0008D919C910E94F20260E0F80180819181DD
:1046B0000E947B0767EA71E0CE0101960E94880A9A
:1046C00028EE33E040E050E0BE016F5F7F4FC8014D
:1046D0000E94DC0F182FCE0101960E94870911114C
:1046E00005C00E943F0769E872E099CF8090FA0404
:1046F0009090FB0469E472E0CE0149960E94880A1A
:10470000C4010E943A1068EB7BE080E090E00E94D8
:10471000DB0466E272E0D4018D919C910E94BD079A
:1047200063EA71E0CE0101960E94880A66E472E0B5
:10473000CE0107960E94880A67EA71E0CE010D96C5
:104740000E94880A60E1C62E67E2D62EE12CF12C89
:104750008E01075E1F4F9E012F5F3F4FAE01495FE5
:104760005F4FBE01635F7F4FC4010E94D60ECE0132
:104770000D960E948709CE0107960E948709CE01F7
:1047800001960E9487090E943F07C8010E94940772
:104790008090FA049090FB0469E472E0CE014396A5
:1047A0000E94880AC4010E943A106BE172E0F40191
:1047B000808191810E94F20261E0D4018D919C91EF
:1047C0000E947B076AE472E0CE0107960E94880A85
:1047D00067EA71E0CE0101960E94880A18EEE12E88
:1047E00013E0F12E00E010E09E01295F3F4FAE0183
:1047F0004F5F5F4FB401CE010D960E94E40DBE01E4
:10480000635F7F4FCE0143960E943C09CE010D9617
:104810000E948709CE0101960E948709CE01079662
:104820000E94870967EA71E0CE0101960E94880A1A
:10483000BE016F5F7F4FCE0143960E94FC088C0142
:10484000CE0101960E948709CE0143960E948709F6
:104850000F3F1F4F41F40E943F0764E772E08AEC6C
:1048600092E00E94BD078090FA049090FB0469E4F6
:1048700072E0CE0143960E94880AC4010E943A1059
:1048800060E172E0F401808191810E94BD0763EADA
:1048900071E0CE010D960E94880A6DE771E0CE01AD
:1048A00007960E94880A67EA71E0CE0101960E948D
:1048B000880A58EEC52E53E0D52EE12CF12C8E013E
:1048C0000D5E1F4F9E01235F3F4FAE01495F5F4F5B
:1048D000BE016F5F7F4FC4010E94D60ED82ECE015D
:1048E00001960E948709CE0107960E948709CE0192
:1048F0000D960E948709DD2021F0C8010E946708FB
:10490000B62ECE0143960E948709D1100DC00E9499
:104910003F076DE572E08AEC92E00E94BD07CE0190
:1049200049960E9487097FCEF1E0BF1609F476C050
:1049300069E472E0CE0143960E94880AC4010E9495
:104940003A1065E072E0D4018D919C910E94F202D0
:1049500061E0F401808191810E947B076AE572E049
:10496000CE0107960E94880A67EA71E0CE010D9693
:104970000E94880A18EEE12E13E0F12E00E010E00C
:104980009E01295F3F4FAE01435F5F4FB401CE01EF
:1049900001960E94E40DBE016F5F7F4FCE014396EA
:1049A0000E943C09CE0101960E948709CE010D9616
:1049B0000E948709CE0107960E94870967EA71E085
:1049C000CE0101960E94880ABE016F5F7F4FCE0123
:1049D00043960E94FC080196B1F46AE572E0CE01AC
:1049E00007960E94880ABE01695F7F4FCE014396F9
:1049F0000E94FC08DD24D394019609F4D12CCE0149
:104A000007960E948709CE0101960E948709CE0170
:104A100043960E948709DD2009F479CF0091FA04BA
:104A20001091FB0460E071E0CE0107960E94880AB5
:104A30006DE071E0CE0101960E94880AAE01495FE7
:104A40005F4FBE016F5F7F4FC8010E94D011182FCA
:104A5000CE0101960E948709CE0107960E94870920
:104A6000112309F454C0A090FA04B090FB0469E447
:104A700072E0CE0143960E94880AC5010E943A1056
:104A80006CEF71E0D5018D919C910E94BD0763EAA6
:104A900071E0CE0101960E94880A66E472E0CE01C0
:104AA00007960E94880A67EA71E0CE010D960E947F
:104AB000880A38EEC32E33E0D32EE12CF12C8E0180
:104AC0000D5E1F4F9E012F5F3F4FAE01495F5F4F4D
:104AD000BE01635F7F4FC5010E94D60ECE010D96C9
:104AE0000E948709CE0107960E948709CE01019690
:104AF0000E9487090E943F07C8010E949407C801CD
:104B00000E9487090E943F076BE472E004CF0E9475
:104B10003F0764E372E0FFCE8091F8049091F904BE
:104B2000019709F080CD62E0809191030E947A04A0
:104B30000E940E05605D774081099109609395039D
:104B400070939603809397039093980387E38093E1
:104B50009E038091DF049091E00497FF17C00E94AC
:104B60000E05EFE9F3E024E1DF01322F1D923A95C3
:104B7000E9F760837183828393837496A4E0EF3DA9
:104B8000FA0791F71092E0041092DF048091DF049D
:104B90009091E004409774F4EFE9F3E090E080E056
:104BA00024813581232B09F4C5C001967496803188
:104BB0009105B1F79FEDC92E94E0D92E22242394BC
:104BC000312C81EE94E00E94D4130E940E056F8F69
:104BD00078A389A39AA38FE9E82E83E0F82E8701B2
:104BE000F801138A128A84819581892BC1F1408052
:104BF0005180628073806F8D78A189A19AA1641918
:104C000075098609970981849284A384B484681500
:104C100079058A059B0518F1A50194010E94042DD0
:104C2000C501B4010E94E02C460E571E681E791E75
:104C3000D8014D925D926D927C92139751968C9112
:104C40005197882361F01D962D913C911E97211557
:104C5000310509F058C053963C922E9252970C5E43
:104C60001F4FC016D10609F0BBCFD70152968D91C8
:104C70009C915397892B99F11496ED91FC9115977E
:104C800018968C911897882309F452C016968D9126
:104C90009C910995F70182899389029701F580918A
:104CA000DF049091E004892BD1F084819581892BD8
:104CB000B1F0D701E4E11D92EA95E9F70E940E05F3
:104CC000D7016D937D938D939C9313978091DF040F
:104CD0009091E00401979093E0048093DF04B4E1A5
:104CE000EB0EF11C0E151F0509F0BFCFE0E0F0E060
:104CF000EF2B09F466CF0E948003882309F461CF6B
:104D00000E9400005ECFF801878590898217930783
:104D100008F0A5CF338A228A0196908B8787821765
:104D2000930708F49CCF22E030E0338B228B97CF9F
:104D30000995B0CF24E1289F8001299F100D1124EF
:104D400001561C4F80ED97E0A0E0B0E0F8018187AC
:104D50009287A387B4878FE39CE19583848317822E
:104D6000168210861686158681E0818B0E940E05BC
:104D7000D8016D937D938D939C9313978091DF045D
:104D80009091E00401969093E0048093DF0412CFA9
:104D90008CE591E090936E0380936D038091C10246
:104DA0009091C2028D56934071F4E0918003F0918E
:104DB0008103908180918203809589238083109262
:104DC000C2021092C1020895EF920F931F93CF93E6
:104DD000DF93E80134E047FD34E1042E000C550B6D
:104DE00057FF03C0519541955109E32E022F242FFF
:104DF000AE010E94B728CE01DF91CF911F910F9194
:104E0000EF9008950F931F93CF93DF938230910516
:104E100010F482E090E0E0910906F0910A0630E09B
:104E200020E0B0E0A0E0309799F42115310509F4B5
:104E30004AC0281B390B24303105D8F58A819B8163
:104E40006115710589F1FB0193838283FE0111C015
:104E5000408151810281138148175907E0F04817BA
:104E6000590799F4109761F012960C9312971396C4
:104E70001C933296CF01DF91CF911F910F9108952E
:104E80000093090610930A06F4CF2115310551F05D
:104E90004217530738F0A901DB019A01BD01DF0178
:104EA000F801C1CFEF01F9CF90930A06809309066C
:104EB000CDCFFE01E20FF31F819391932250310970
:104EC00039832883D7CF2091070630910806232BFA
:104ED00041F4209136013091370130930806209338
:104EE000070620913401309135012115310541F437
:104EF0002DB73EB74091380150913901241B350B35
:104F0000E0910706F0910806E217F307A0F42E1BC4
:104F10003F0B2817390778F0AC014E5F5F4F24171D
:104F2000350748F04E0F5F1F509308064093070661
:104F3000819391939FCFF0E0E0E09CCFCF93DF93FC
:104F40000097E9F0FC01329713821282A0910906C2
:104F5000B0910A06ED0130E020E01097A1F4208125
:104F60003181820F931F2091070630910806281780
:104F7000390709F061C0F0930806E0930706DF9156
:104F8000CF910895EA01CE17DF07E8F54A815B81EA
:104F90009E0141155105B1F7E901FB83EA8349916F
:104FA0005991C40FD51FEC17FD0761F480819181E1
:104FB0000296840F951FE9019983888382819381EA
:104FC0009B838A83F0E0E0E012968D919C91139789
:104FD0000097B9F52D913C911197CD010296820F62
:104FE000931F20910706309108062817390739F6D4
:104FF000309751F510920A0610920906B0930806F0
:10500000A0930706BCCFD383C28340815181840F14
:10501000951FC817D90761F44E5F5F4F888199814A
:10502000480F591F518340838A819B8193838283D8
:105030002115310509F0B0CFF0930A06E093090677
:105040009ECFFD01DC01C0CF13821282D7CFFC01BD
:1050500088279927E89421912032E9F3293010F02C
:105060002E30C8F32B3241F02D3239F4689404C04D
:105070000E949528820F911D219120532A30C0F360
:105080001EF4909581959F4F08951F93FC019927D9
:105090008827BC01E89411911032E9F3193010F01F
:1050A0001E30C8F31B3251F01D3249F4689406C01B
:1050B0000E948028610F711D811D911D1191105357
:1050C0001A30B0F33EF490958095709561957F4FBE
:1050D0008F4F9F4F1F910895FB01DC0102C0059087
:1050E0000D9241505040D8F70895BB274A3031F413
:1050F000992322F4BDE2909581959F4F0C949E28B0
:10510000592F482F372F262F660F771F881F991F7B
:10511000660F771F881F991F620F731F841F951FCB
:10512000660F771F881F991F08957AE0979F902D2B
:10513000879F802D910D11240895BB27FB015527D2
:10514000AA27880F991FAA1FA41710F0A41B8395E4
:105150005051B9F7A05DAA3308F0A95DA19300975B
:1051600079F7B111B1931192CB010C94EE2AA9E019
:10517000B0E0EDEBF8E20C942E2C6A01F22EB02E8A
:10518000102FFBE3AF2EA01608F41BE31F5F012FC7
:1051900027E0AE014F5F5F4F0E94162ABC01898154
:1051A000982F9970913009F43FC09BE2E1FC04C054
:1051B0009E2D9170E0FC3AC05E2D5071E82FE87092
:1051C00083FF46C084E0911101C083E0EF2DE81B0E
:1051D0008F1508F0E0E0D6018E2F20E2552351F123
:1051E000992329F0D6019C93C60101966C01960182
:1051F0002D5F3F4FE2FE24C08EE4D6018C9391E4F4
:1052000011969C93119712968C93D9018E2F90E250
:1052100081111BC0E20FF32FF11D10828EEF9FEF63
:105220002996ECE00C944A2C9DE2C6CF90E2C4CFC4
:105230002D9381508111FCCFCE0ED11CE0E0D0CF58
:105240008EE6D6018C9391E6DBCF9D938150E0CF23
:10525000482F447082FF3DC084E0911101C083E07B
:105260008F1510F4EF2DE81BD6018E2F20E2552369
:1052700009F1992329F0D6019C93C60101966C018E
:1052800096012D5F3F4FE2FE1BC089E4D6018C934F
:105290008EE411968C93119786E412968C93D90123
:1052A0008E2F90E2882309F4B5CF9D938150FACFD9
:1052B0002D9381508111FCCFCE0ED11CE0E0D9CFCF
:1052C00089E6D6018C938EE611968C93119786E62B
:1052D000E4CF9B0177FF02C030E020E0A1E0B0E026
:1052E000911102C0B0E0A0E0F9013196AE0FBF1FEE
:1052F0008B2C912CBB2009F461C05401EFEFAE1A46
:10530000BE0AAA0DBB1DFA161B0619F014F04F2D8C
:105310004A1B511188C0E3FC59C07601A42FB0E2AA
:10532000A1114FC0C40ED11C992309F45BC040E009
:10533000D6011196F60190836D01552309F448C0FA
:10534000012F060F9A81582F507184FF03C09133AB
:1053500009F4015010160CF047C0093008F008E0BD
:10536000EEE2FE2E5B01A01AB108850191948194B2
:1053700091082F3F320729F4D601FC92F6013196AD
:105380006F016217730794F1021713077CF5DB01B5
:10539000A21BB30BAA24A394B12CAC0EBD1EAA0D64
:1053A000BB1D11968C9121503109D60111962815FB
:1053B0003905F4F0F60180836D01DBCFB12CA12C0F
:1053C000A0CFF701B1937F01A150AACF9111B0CF27
:1053D000D601942F50E302C05D9391509111FCCF00
:1053E000C40ED11C40E0ACCF01E0BACF80E3DBCFEC
:1053F0006217730731F4963388F4953311F455230B
:1054000069F0F6018083FD01842F90E2811108C0CC
:10541000A40FB11D1C9290E080E002CF81E3F1CF98
:1054200091938150F3CF911183CF8ACF283008F028
:1054300027E03327DA01990F311D87FD916000962F
:105440006105710539F432602E5F3D9330E32A9592
:10545000E1F708959F3F30F080387105610509F04C
:105460003C5F3C5F3D93913008F08068911DDF9375
:10547000CF931F930F93FF92EF92192F987F9695DA
:10548000E92F96959695E90FFF27EE53FF4F992741
:105490003327EE24FF24A701E70105900894079421
:1054A00028F4360FE71EF81E491F511D660F771F9F
:1054B000881F991F0694A1F70590079428F4E70E1A
:1054C000F81E491F561FC11D770F881F991F661FA1
:1054D0000694A1F70590079428F4F80E491F561F6B
:1054E000C71FD11D880F991F661F771F0694A1F74C
:1054F0000590079420F4490F561FC71FD81F990F16
:10550000661F771F881F0694A9F78491109517705E
:1055100041F0D695C79557954795F794E7941A9516
:10552000C1F7E8E6F0E06894159015913591659122
:10553000959105907FE27395E118F10A430B560BA4
:10554000C90BD009C0F7E10CF11E431F561FC91F3C
:10555000D01D7EF4703311F48A95E6CFE8940150A3
:1055600030F0080F0AF40027021708F4202F2395C3
:10557000022F7A3328F079E37D932A95E9F710C05A
:105580007D932A9589F60694979567953795179593
:105590001794E118F10A430B560BC90BD00998F088
:1055A00023957E9173957A3308F070E37C932013F2
:1055B000B8F77E9170617D9330F0839571E37D93B0
:1055C00070E32A95E1F71124EF90FF900F911F915E
:1055D000CF91DF91992787FD90950895DC01FC011B
:1055E000672F71917723E1F7329704C07C916D9317
:1055F00070836291AE17BF07C8F30895E89409C09D
:1056000097FB3EF490958095709561957F4F8F4FF5
:105610009F4F9923A9F0F92F96E9BB279395F6950B
:10562000879577956795B795F111F8CFFAF4BB0F89
:1056300011F460FF1BC06F5F7F4F8F4F9F4F16C0ED
:10564000882311F096E911C0772321F09EE8872F77
:10565000762F05C0662371F096E8862F70E060E033
:105660002AF09A95660F771F881FDAF7880F9695AC
:10567000879597F90895990F0008550FAA0BE0E850
:10568000FEEF16161706E807F907C0F01216130604
:10569000E407F50798F0621B730B840B950B39F444
:1056A0000A2661F0232B242B252B21F408950A26AA
:1056B00009F4A140A6958FEF811D811D08950E94D8
:1056C000722B0C94E32B0E94D52B38F00E94DC2B1C
:1056D00020F0952311F00C94CC2B0C94D22B112498
:1056E0000C94172C0E94F42B70F3959FC1F3950F27
:1056F00050E0551F629FF001729FBB27F00DB11D56
:10570000639FAA27F00DB11DAA1F649F6627B00DE5
:10571000A11D661F829F2227B00DA11D621F739FCE
:10572000B00DA11D621F839FA00D611D221F749FDC
:105730003327A00D611D231F849F600D211D822F23
:10574000762F6A2F11249F5750409AF0F1F088234A
:105750004AF0EE0FFF1FBB1F661F771F881F915077
:105760005040A9F79E3F510580F00C94CC2B0C942F
:10577000172C5F3FE4F3983ED4F3869577956795B1
:10578000B795F795E7959F5FC1F7FE2B880F911DA1
:105790009695879597F9089597F99F6780E870E047
:1057A00060E008959FEF80EC089500240A94161697
:1057B000170618060906089500240A9412161306FF
:1057C000140605060895092E0394000C11F488238D
:1057D00052F0BB0F40F4BF2B11F460FF04C06F5FA9
:1057E0007F4F8F4F9F4F089557FD9058440F551F7F
:1057F00059F05F3F71F04795880F97FB991F61F053
:105800009F3F79F087950895121613061406551FC9
:10581000F2CF4695F1DF08C0161617061806991F35
:10582000F1CF86957105610508940895E894BB272A
:1058300066277727CB0197F908950E945F2CA59FD3
:10584000900DB49F900DA49F800D911D112408957B
:105850002F923F924F925F926F927F928F929F9280
:10586000AF92BF92CF92DF92EF92FF920F931F936E
:10587000CF93DF93CDB7DEB7CA1BDB0B0FB6F8941F
:10588000DEBF0FBECDBF09942A88398848885F845F
:105890006E847D848C849B84AA84B984C884DF80D0
:1058A000EE80FD800C811B81AA81B981CE0FD11DB4
:1058B0000FB6F894DEBF0FBECDBFED010895A29FD5
:1058C000B001B39FC001A39F700D811D1124911DD4
:1058D000B29F700D811D1124911D08955058BB2752
:1058E000AA270E94862C0C94E32B0E94D52B38F01B
:1058F0000E94DC2B20F039F49F3F19F426F40C941D
:10590000D22B0EF4E095E7FB0C94CC2BE92F0E94F0
:10591000F42B58F3BA17620773078407950720F032
:1059200079F4A6F50C94162C0EF4E0950B2EBA2FF4
:10593000A02D0B01B90190010C01CA01A001112495
:10594000FF27591B99F0593F50F4503E68F11A1641
:10595000F040A22F232F342F4427585FF3CF4695D2
:1059600037952795A795F0405395C9F77EF41F16F4
:10597000BA0B620B730B840BBAF09150A1F0FF0FBE
:10598000BB1F661F771F881FC2F70EC0BA0F621FAA
:10599000731F841F48F4879577956795B795F7959A
:1059A0009E3F08F0B0CF9395880F08F09927EE0F2F
:1059B0009795879508950E943B2B880B990B089526
:1059C000DB018F939F930E941D2CBF91AF91A29FEB
:1059D000800D911DA39F900DB29F900D11240895ED
:1059E00097FB072E16F4009407D077FD09D00E948C
:1059F000262D07FC05D03EF4909581959F4F089584
:105A0000709561957F4F0895A1E21A2EAA1BBB1BCA
:105A1000FD010DC0AA1FBB1FEE1FFF1FA217B3077A
:105A2000E407F50720F0A21BB30BE40BF50B661F90
:105A3000771F881F991F1A9469F760957095809554
:105A400090959B01AC01BD01CF010895AA1BBB1B22
:105A500051E107C0AA1FBB1FA617B70710F0A61B6E
:105A6000B70B881F991F5A95A9F780959095BC018F
:105A7000CD010895EE0FFF1F0590F491E02D0994DC
:105A8000B0E0A0E0E6E4FDE20C942A2C8C01009743
:105A900051F4CB010E9402278C01C801CDB7DEB7BB
:105AA000E0E10C94462CFC01E60FF71F9C0122500C
:105AB0003109E217F30708F49DC0D901CD91DC91BB
:105AC0001197C617D70798F0C530D10530F3CE012E
:105AD00004978617970708F3C61BD70B2297C19325
